S01800004C6162355F456D627379735F52544F532E737265634F
S113000050C200006FC200006DC200006BC200004D
S113001069C2000067C2000065C2000063C200003C
S113002061C200005FC200005DC200005BC200004C
S113003059C2000057C200000C94C60A53C2000003
S113004051C200004FC200004DC200004BC200006C
S113005049C2000047C2000045C2000043C200007C
S113006041C200003FC200003DC200003BC200008C
S113007039C2000037C2000035C2000033C200009C
S113008031C200002FC200002DC200002BC20000AC
S113009029C2000027C2000025C2000023C20000BC
S11300A021C200001FC200001DC200001BC20000CC
S11300B019C2000017C2000015C2000013C20000DC
S11300C011C200000FC200000DC200000BC20000EC
S11300D009C2000007C2000005C2000003C20000FC
S11300E001C20000FFC10000FDC10000FBC100000F
S11300F0F9C10000F7C10000F5C10000F3C1000020
S1130100F1C10000EFC10000EDC10000EBC100002F
S1130110E9C10000E7C10000E5C10000E3C100003F
S1130120E1C10000DFC10000DDC10000DBC100004F
S1130130D9C10000D7C10000D5C10000D3C100005F
S1130140D1C10000CFC10000CDC10000CBC100006F
S1130150C9C10000C7C10000C5C10000C3C100007F
S1130160C1C10000BFC10000BDC10000BBC100008F
S1130170B9C10000B7C10000B5C10000B3C100009F
S1130180B1C10000AFC10000ADC10000ABC10000AF
S1130190A9C10000A7C10000A5C10000A3C10000BF
S11301A0A1C100009FC100009DC100009BC10000CF
S11301B099C1000097C1000095C1000093C10000DF
S11301C091C100008FC100008DC100008BC10000EF
S11301D089C1000087C1000085C1000083C10000FF
S11301E081C100007FC100007DC100007BC100000F
S11301F079C1000077C1000075C10000EB13EB1357
S1130200EB13181420142E14EB13EB1318142014EE
S1130210000000000000002020202020002050507A
S113022050000000005050F850F850502078A07052
S113023028F020C0C810204098186090A040A890D2
S11302406860204000000000102040404020104022
S1130250201010102040005020F8205000002020D2
S1130260F820200000000000602040000000F8009A
S113027000000000000000606000081020408000C2
S1130280708898A8C888702060202020207070880A
S113029008102040F8F81020100888701030509092
S11302A0F81010F880F008088870304080F08888D2
S11302B070F80810204040407088887088887070FA
S11302C088887808106000606000606000006060EA
S11302D000602040081020402010080000F800F8BA
S11302E000008040201020408070880810200020EA
S11302F070880868A8A87070888888F88888F0884A
S113030088F08888F070888080808870E090888881
S11303108890E0F88080F08080F8F88080E0808029
S11303208070888080988870888888F88888887029
S1130330202020202070381010101090608890A089
S1130340C0A09088808080808080F888D8A8888821
S113035088888888C8A898888870888888888870D9
S1130360F08888F080808070888888A89068F088F9
S113037088F0A09088788080700808F0F820202009
S11303802020208888888888887088888888885071
S113039020888888A8A8D888888850205088888889
S11303A0885020202020F80810204080F838202091
S11303B02020203800804020100800E02020202049
S11303C020E020508800000000000000000000F839
S11303D040201000000000000070087888788080B9
S11303E0B0C88888F0000070808088700808689819
S11303F088887800007088F88070304840E0404079
S113040040000078887808308080B0C888888820C8
S11304100060202020701000301010906040404890
S113042050605048602020202020700000D0A8A8F0
S113043088880000B0C88888880000708888887020
S11304400000F088F08080000068987808080000B8
S1130450B0C8808080000070807008F04040E040A8
S11304604048300000888888986800008888885050
S11304702000008888A8A8500000885020508800D8
S11304800088887808700000F8102040F8102020B8
S11304904020201020202020202020402020102038
S11304A0204011241FBECFEFCDBFDFE5DEBF00E04B
S11304B00CBF10E2A0E0B0E2E6E4F6E300E00BBF1C
S11304C002C007900D92A835B107D9F722E2A8E53A
S11304D0B0E201C01D92AF3DB207E1F70E948C1655
S11304E00C94211B8DCD04C06150710981099109BF
S11304F06115710581059105B9F70895BF92CF92F1
S1130500DF92EF92FF920F931F93CF93DF931F928B
S1130510CDB7DEB700E016E06894FF24F3F8F801E5
S1130520F68264E070E080E090E0DDDFF801F582BF
S113053064E070E080E090E0D6DF0F2EFBE2BF2E97
S1130540F02DB98280EA99E0D4D4C12CD12C760163
S113055000E412E42FE030E043E0BE016F5F7F4F20
S113056080EA99E0F5D400E616E0FF24F394F8015C
S1130570F682B982BE016F5F7F4F80EA99E002D5AF
S1130580F801F682E0EAF9E0818185FFFDCF80EA97
S11305908093A009E0EAF9E0818186FFFDCFE0EADB
S11305A0F9E080E481838081BE016F5F7F4F80EA40
S11305B099E0FED48BE28983BE016F5F7F4F80EAAE
S11305C099E0E0D481E080936606E0EAF9E0818175
S11305D085FFFDCF86EA8093A009E0EAF9E08181F6
S11305E086FFFDCFE0EAF9E080E481838081BE01EB
S11305F06F5F7F4F80EA99E0DBD48BE28983BE0191
S11306006F5F7F4F80EA99E0BDD481E080936606F6
S1130610E0EAF9E0818185FFFDCF88EC8093A009B1
S1130620E0EAF9E0818186FFFDCFE0EAF9E080E4C9
S113063081838081BE016F5F7F4F80EA99E0B8D4E7
S11306408BE28983BE016F5F7F4F80EA99E09AD481
S113065081E080936606E0EAF9E0818185FFFDCFC1
S113066082EA8093A009E0EAF9E0818186FFFDCF68
S1130670E0EAF9E080E481838081BE016F5F7F4F0F
S113068080EA99E095D48BE28983BE016F5F7F4F46
S113069080EA99E077D481E080936606E0EAF9E0A5
S11306A0818185FFFDCF8FE28093A009E0EAF9E024
S11306B0818186FFFDCFE0EAF9E080E481838081D7
S11306C0BE016F5F7F4F80EA99E072D48BE2898329
S11306D0BE016F5F7F4F80EA99E054D481E080933C
S11306E06606E0EAF9E0818185FFFDCF88EF80931B
S11306F0A009E0EAF9E0818186FFFDCFE0EAF9E0B4
S113070080E481838081BE016F5F7F4F80EA99E03E
S11307104FD48BE28983BE016F5F7F4F80EA99E0FB
S113072031D481E080936606E0EAF9E0818185FFB7
S1130730FDCF1092A009E0EAF9E0818186FFFDCFA8
S1130740E0EAF9E080E481838081BE016F5F7F4F3E
S113075080EA99E02DD48BE28983BE016F5F7F4FDD
S113076080EA99E00FD481E080936606E0EAF9E03C
S1130770818185FFFDCF81E28093A009E0EAF9E061
S1130780818186FFFDCFE0EAF9E080E48183808106
S1130790BE016F5F7F4F80EA99E00AD48BE28983C0
S11307A0BE016F5F7F4F80EA99E0ECD381E08093D4
S11307B06606E0EAF9E0818185FFFDCF81E8809358
S11307C0A009E0EAF9E0818186FFFDCFE0EAF9E0E3
S11307D080E481838081BE016F5F7F4F80EA99E06E
S11307E0E7D38BE28983BE016F5F7F4F80EA99E094
S11307F0C9D381E080936606E0EAF9E0818185FF50
S1130800FDCF81E28093A009E0EAF9E0818186FFCF
S1130810FDCFE0EAF9E080E481838081BE016F5F6F
S11308207F4F80EA99E0C4D38BE28983BE016F5F76
S11308307F4F80EA99E0A6D381E080936606E0EAE0
S1130840F9E0818185FFFDCF8FEA8093A009E0EA7A
S1130850F9E0818186FFFDCFE0EAF9E080E481835D
S11308608081BE016F5F7F4F80EA99E0A1D30F9032
S1130870DF91CF911F910F91FF90EF90DF90CF9078
S1130880BF900895FF920F931F93CF93DF931F920E
S1130890CDB7DEB7082FF62E142FA5D30F70006B3B
S11308A08BE28983BE016F5F7F4F80EA99E06AD350
S11308B081E080936606E0EAF9E0918195FFFDCF3F
S11308C00093A009E0EAF9E0818186FFFDCFE0EA28
S11308D0F9E080E481838081BE016F5F7F4F80EA0D
S11308E099E066D30F2D0F7702950F7000618BE2AC
S11308F08983BE016F5F7F4F80EA99E043D381E033
S113090080936606E0EAF9E0818185FFFDCF0093DC
S1130910A009E0EAF9E0818186FFFDCFE0EAF9E091
S113092080E481838081BE016F5F7F4F80EA99E01C
S11309303FD30F2D0F708BE28983BE016F5F7F4F12
S113094080EA99E01FD381E080936606E0EAF9E04B
S1130950818185FFFDCF0093A009E0EAF9E0818160
S113096086FFFDCFE0EAF9E080E481838081BE0167
S11309706F5F7F4F80EA99E01BD38BE28983BE01CE
S11309806F5F7F4F80EA99E0FDD281E08093650636
S1130990E0EAF9E0818185FFFDCF1093A009E0EA48
S11309A0F9E0818186FFFDCFE0EAF9E080E481830C
S11309B0808181E080936606BE016F5F7F4F80EA8D
S11309C099E0F6D20F90DF91CF911F910F91FF9094
S11309D008950F931F93CF93DF931F92CDB7DEB784
S11309E088E590E2FBD28ADD8BE28983BE016F5FEA
S11309F07F4F80EA99E0C6D281E080936606E0EA00
S1130A00F9E0818185FFFDCF80E48093A009E0EACD
S1130A10F9E0818186FFFDCFE0EAF9E080E481839B
S1130A208081BE016F5F7F4F80EA99E0C1D200E010
S1130A300AC040E0612F802F25DF1F5F1038C9F7FF
S1130A400F5F043011F010E0F4CF0F90DF91CF91DD
S1130A501F910F910895FF920F931F93CF93DF93EC
S1130A6088234CF1603238F5D42FC82FF62EF69433
S1130A70F694F69470E088E0F89E601971091124E8
S1130A8081E090E08C0102C0000F111F6A95E2F72B
S1130A906C2F8F2DB6D2D13021F028F0D23031F026
S1130AA006C0802B04C00095802301C08027482FF6
S1130AB06C2F8F2DE7DEDF91CF911F910F91FF9067
S1130AC008959FC20895CF92DF92EF92FF920F9301
S1130AD01F93CF93DF93EC01D901C801B695A79575
S1130AE097958795481759076A077B0778F46A0131
S1130AF07B01CC0CDD1CEE1CFF1CC901B801A70155
S1130B0096010E94F0162150310902C020E030E025
S1130B10832F8F708F832E83DF91CF911F910F913D
S1130B20FF90EF90DF90CF900895DF92EF92FF92C5
S1130B300F931F93CF93DF931F92CDB7DEB77C0142
S1130B408B01009709F4B2C1803C910521F460E166
S1130B5080E0E1D2ABC180E8E81681E0F80621F438
S1130B6062E080E0D8D2A2C1E114E1E0FE0621F403
S1130B7061E080E0D0D29AC1F0E8EF16F3E0FF061E
S1130B8021F461E081E0C7D291C130E9E31633E09A
S1130B90F30621F461E082E0BED288C1E11482E070
S1130BA0F80621F462E081E0B6D280C1E0E4EE16FA
S1130BB0E2E0FE0621F462E082E0ADD277C1F0E229
S1130BC0EF16F3E0FF0621F464E082E0A4D26EC1E4
S1130BD0E11438E0F30621F461E083E09CD266C1BD
S1130BE0E11489E0F80621F461E084E094D25EC166
S1130BF0E114EAE0FE0621F461E085E08CD256C1FE
S1130C00E114FBE0FF0621F461E086E084D24EC1EA
S1130C1030E4E31638E0F30621F462E083E07BD2AB
S1130C2045C180E4E81689E0F80621F462E084E036
S1130C3072D23CC1E0E4EE16EAE0FE0621F462E082
S1130C4085E069D233C1F0E9EF16F8E0FF0621F43C
S1130C5064E083E060D22AC130E9E31639E0F306A8
S1130C6021F464E084E057D221C180E9E8168AE0E7
S1130C70F80621F464E085E04ED218C1E0E9EE16EE
S1130C80EBE0FE0621F464E086E045D20FC1F0EC0F
S1130C90EF16F8E0FF0621F468E083E03CD206C1D9
S1130CA030ECE31639E0F30621F468E084E033D253
S1130CB0FDC080EAE81688E0F80661F460E183E0AC
S1130CC02AD2E0EAF8E084818F7E8483F8012481CB
S1130CD022504CC0F0EAEF16F9E0FF0621F460E17F
S1130CE084E019D2E3C030EAE3163AE0F30621F4D3
S1130CF060E185E010D2DAC080EAE8168BE0F806FD
S1130D0021F460E186E007D2D1C0E0EBEE16E8E022
S1130D10FE0621F460E283E0FED1C8C0F0EBEF16DA
S1130D20F9E0FF0621F460E284E0F5D1BFC030E8C9
S1130D30E31634E0F30621F460E483E0ECD1B6C0BA
S1130D4080EAE81684E0F80621F460E485E0E3D163
S1130D50ADC0F70184818F7E8483FB0124812250FE
S1130D60C701F0EAEF16F8E0FF0649F480914E0659
S1130D7084FDA5C00F2EF1E1DF2EF02DA4C0803B31
S1130D8038E0930791F0803AE9E09E0749F4309106
S1130D906E0634FD9BC00F2EF9E1DF2EF02D16C038
S1130DA0803BF9E09F07F1F004C00F2EF5E1DF2E40
S1130DB0F02D803A3AE0930749F480918E0684FD41
S1130DC08AC00F2EF1E2DF2EF02D15C0803A9B4031
S1130DD091F48091AE0684FD0AC00F2EF9E2DF2E55
S1130DE0F02D09C00F2EFDE1DF2EF02D04C00F2ED3
S1130DF0FDE2DF2EF02DED2DE695E695E69530E249
S1130E00E39FF0011124FA5F3D2D377081E090E0FB
S1130E10032E02C0880F991F0A94E2F781832230BF
S1130E2010F040E001C040E4DF015096A30FB11D73
S1130E309FB79983F89439812C9127702C939C91B6
S1130E40942B9C933FBF8583F7018581806C8583B8
S1130E50F80184818D7F813029F4F70185818260D6
S1130E60858304C0F70185818D7F8583F8018581A1
S1130E70882329F0F70185818460858304C0F70104
S1130E8085818B7F8583F8014081518162817381E3
S1130E9000E814E82EE130E0C70115DEF701848193
S1130EA0886084838481806184831AC0F70184818B
S1130EB08F7E8483F80124812250C70160CF0F2ED6
S1130EC0F5E1DF2EF02D80EA98E06ACF0F2EFDE1E8
S1130ED0DF2EF02D7BCF0F2EF5E2DF2EF02D8BCF02
S1130EE00F90DF91CF911F910F91FF90EF90DF90C2
S1130EF00895803A28E0920721F460E183E00BC171
S1130F000895803B28E0920721F460E283E003C166
S1130F100895803A29E0920721F460E184E0FBC05F
S1130F200895803B29E0920721F460E284E0F3C055
S1130F300895803A2AE0920721F460E185E0EBC04D
S1130F400895803A9B4019F460E186E0E4C0089576
S1130F500F931F93CF93DF9300D000D0CDB7DEB7AC
S1130F6009831A832B833C834D831E82BE016F5FEA
S1130F707F4FDBDD2696CDBFDEBFDF91CF911F9182
S1130F800F910895FB018081E82FE695E695E6959B
S1130F9040E2E49FF0011124FA5F877021E030E021
S1130FA0A90102C0440F551F8A95E2F746830895AC
S1130FB0FB018081E82FE695E695E69540E2E49F03
S1130FC0F0011124FA5F877021E030E0A90102C02A
S1130FD0440F551F8A95E2F745830895809358225C
S1130FE0909359220895209158223091592290E8E3
S1130FF0899F200D311D1124F901E60FF11D408355
S11310000895209158223091592290E8899F200D0B
S1131010311D1124F901E60FF11D80810895FF921D
S11310200F931F93CF93DF93E42FF0E0E80FF11DAC
S1131030E138F1051CF0C0E84C2F481B442309F4A7
S11310404AC0D62FD695D695D69570E098E0D99F0C
S1131050601971091124E1E0F0E0DF0102C0AA0F78
S1131060BB1F6A95E2F7FA2E213021F098F0223066
S113107019F131C0C42F1FEF180F012F0C0F602F6F
S11310808D2F1FDD4F2D482B602F8D2FFBDBC15083
S1131090A1F721C0C42F1FEF180FFA2EF094012FCF
S11310A00C0F602F8D2F0DDD4F2D4823602F8D2FBA
S11310B0E9DBC150A1F70FC0C42F1FEF180F012F98
S11310C00C0F602F8D2FFDDC4F2D4827602F8D2FA7
S11310D0D9DBC150A1F7DF91CF911F910F91FF9000
S11310E00895FF920F931F93CF93DF93222369F008
S11310F0F42E182FC22FDFEFD60F6D2F6C0F202F79
S11311004F2D812F8CDFC150C1F7DF91CF911F91FB
S11311100F91FF900895CF93DF931F92CDB7DEB761
S11311209FB79983F8949981E82FF0E0E059FF4F35
S113113060958081682360839FBF0F90DF91CF917A
S11311400895AF92BF92CF92DF92EF92FF920F93E6
S11311501F93CF93DF93C82FE62EB42E690100E0CE
S1131160F901248143816B2D8E2DBBDFF601808133
S1131170811139C08381282F26952695269587705D
S113118009F02F5FF601A4808C2F90E03581831B3A
S113119091092A9D90011124829FA001839F500DE3
S11311A0929F500D112401811281040F151FF60125
S11311B0F380FF20A1F0D0E0C0E08E2D8C0F9C2F97
S11311C0977021F4F801D4910F5F1F4FDD231CF4B5
S11311D041E06B2D40DCDD0FCF5FFC12EECFB3940A
S11311E0AA94A110E4CFDF91CF911F910F91FF90AA
S11311F0EF90DF90CF90BF90AF900895DF92EF9281
S1131200FF920F931F93CF93DF93D62E042F790170
S1131210EC01162F89918A3031F4F70184818F5FB4
S1131220080F1D2D09C08D3039F09701402F612F13
S113123088DFF7018381180F88818111EBCFDF915B
S1131240CF911F910F91FF90EF90DF900895FC01D3
S11312500396818392832FEF3FEF23833483858327
S113126096838783908710820895FC0110861186E7
S11312700895CF93DF939C01FB01DC011196CD917E
S1131280DC911297C283D3838C819D81848395835F
S11312908C819D81DC0112966D937C9313976C83F2
S11312A07D8320873187F90180818F5F8083DF917F
S11312B0CF910895CF93DF93EB01488159814F3F3C
S11312C02FEF520721F4FC01A781B0850DC0DC018A
S11312D0139601C0DF011296ED91FC9113972081C2
S11312E0318142175307B0F71296ED91FC91139791
S11312F0EA83FB83C483D583AC83BD831296CD93E9
S1131300DC93139788879987FC0120812F5F2083C2
S1131310DF91CF910895CF93DF93FC01A085B18530
S1131320C281D381848195818C839D83C481D5813D
S1131330828193818A839B8311968D919C911297CC
S1131340E817F90731F48481958111968D939C9364
S11313501297108611868C9181508C938C91DF9119
S1131360CF9108950F931F938B0171E1FC0170835A
S1131370319762E26083319723E32083012E000CCE
S1131380220B330B319700833197108331972083DD
S113139031971082319720E820833197108231975A
S11313A022E02083319723E02083319724E02083B7
S11313B0319725E02083319726E02083319727E079
S11313C02083319728E02083319729E020833197C7
S11313D020E1208331977083319722E12083319774
S11313E023E12083319724E12083319725E1208371
S11313F0319726E12083319727E12083319728E133
S11314002083319729E12083319720E2208331978B
S113141021E2208331976083319723E2208331973F
S1131420408331975083319726E22083319727E216
S11314302083319728E22083319729E22083319752
S113144020E32083319721E3208387971F910F9115
S11314500895F894E0E7F0E083818A7F8383E0E0F5
S1131460F8E080E09AEF86A397A391E09683A0EA40
S1131470B0E012968C911297816012968C939083AF
S11314807894A091B522B091B6220D900DBE0D9026
S11314900EBEFF91EF91DF91CF91BF91AF919F91DC
S11314A08F917F916F915F914F913F912F911F91F8
S11314B00F91FF90EF90DF90CF90BF90AF909F90EF
S11314C08F907F906F905F904F903F902F901F90E0
S11314D00F900FBE0F90089581E008950F920FB6FC
S11314E0F8940F921F9211242F923F924F925F9281
S11314F06F927F928F929F92AF92BF92CF92DF9220
S1131500EF92FF920F931F932F933F934F935F9309
S11315106F937F938F939F93AF93BF93CF93DF93F7
S1131520EF93FF93A091B522B091B6220DB60D9220
S11315300EB60D927ED6A091B522B091B6220D9032
S11315400DBE0D900EBEFF91EF91DF91CF91BF9133
S1131550AF919F918F917F916F915F914F913F9147
S11315602F911F910F91FF90EF90DF90CF90BF903C
S1131570AF909F908F907F906F905F904F903F902F
S11315802F901F900F900FBE0F9008950F920FB6DB
S1131590F8940F921F9211242F923F924F925F92D0
S11315A06F927F928F929F92AF92BF92CF92DF926F
S11315B0EF92FF920F931F932F933F934F935F9359
S11315C06F937F938F939F93AF93BF93CF93DF9347
S11315D0EF93FF93A091B522B091B6220DB60D9270
S11315E00EB60D92E1D4811124D6A091B522B0910A
S11315F0B6220D900DBE0D900EBEFF91EF91DF91BE
S1131600CF91BF91AF919F918F917F916F915F9196
S11316104F913F912F911F910F91FF90EF90DF9089
S1131620CF90BF90AF909F908F907F906F905F907E
S11316304F903F902F901F900F900FBE0F901895D2
S1131640CF93DF93EC01A0D4CE010E941A17EC01D2
S113165063D5CE01DF91CF910895CF93DF930097A7
S113166031F0EC0191D4CE010E94B21755D5DF912F
S1131670CF9108950FB6F8940F92FC01928D0F90BC
S11316800FBE81E0911180E008950F931F93CF93D3
S1131690DF93EC01042F1A8D4C8D4423B9F1011111
S11316A016C050E08A819B810E943B182C8D8A8150
S11316B09B81820F911D8A839B832C813D8182179C
S11316C0930720F1888199818A839B831FC050E00E
S11316D08E819F810E943B188C8D90E0919581951D
S11316E091092E813F81280F391F2E833F83488122
S11316F059812417350730F42C813D81820F931FC3
S11317008E839F83023011F4111111501F5F1A8FC1
S113171080E0DF91CF911F910F910895FC01448DDA
S11317204423A9F050E026813781240F351F2683F6
S11317303783848195812817390720F0808191812E
S113174086839783CB01668177810C943B18089537
S1131750EF92FF920F931F93CF938C010FB6F894DF
S11317600F92FC01C68D1C169CF48189811106C060
S11317700FC0F8018189811105C00AC07801F1E127
S1131780EF0EF11CC701E4D5811165D6C15089F76C
S11317908FEFF801868F0F900FBE0FB6F8940F925B
S11317A0C58D1C169CF48085811106C00FC0F801FC
S11317B08085811105C00AC07801F8E0EF0EF11CA4
S11317C0C701C6D5811147D6C15089F78FEFF801FB
S11317D0858F0F900FBECF911F910F91FF90EF90C7
S11317E00895CF93DF93EC010FB6F8940F92E8813C
S11317F0F9818B8D2C8D90E030E0829FA001839F36
S1131800500D929F500D11244E0F5F1F4C835D832A
S11318101A8EEA83FB830197829FA001839F500D58
S1131820929F500D1124CF01840F951F8E839F83A7
S11318308FEF8D8F8E8F61110AC08885882369F0A0
S1131840CE01089685D5882341F048DE06C0CE0136
S11318500896FDDCCE014196FADC0F900FBE81E0C4
S1131860DF91CF9108950F931F93CF93DF93082FA8
S1131870162F869FC00111244F96E2DEEC010097DB
S113188069F0111103C08883998303C04F9688833C
S113189099830B8F1C8F61E0CE01A3DFCE01DF9112
S11318A0CF911F910F910895AF92BF92CF92DF9283
S11318B0EF92FF920F931F93CF93DF93CDB7DEB7D1
S11318C02597CDBFDEBF8C016B014C835D83A22EB7
S11318D0B12C7C0188E0E80EF11C0FB6F8940F924D
S11318E0F801928D838D981718F0F2E0AF1215C0AD
S11318F04A2DB601C801C9DEF8019189992339F04E
S1131900C801419625D5882321F0E8DD02C0811164
S1131910E5DD0F900FBE81E046C08C819D81892B4F
S113192021F40F900FBE80E03EC0B11005C0CE017F
S1131930019656D5BB24B3940F900FBE25D30FB692
S1131940F8940F92F801858D8F3F09F4158EF801F4
S1131950868D8F3F09F4168E0F900FBEBE016C5F0B
S11319607F4FCE01019647D5811119C00FB6F89467
S11319700F92F801928D0F900FBE838D98130BC0B8
S11319806C817D81C701BBD4C801E2DEC5D381115E
S1131990A4CFA4DDA2CFC801DBDEBED39ECFC80195
S11319A0D7DEBAD380E02596CDBFDEBFDF91CF91DD
S11319B01F910F91FF90EF90DF90CF90BF90AF9069
S11319C00895EF92FF920F931F93CF93DF938A01B1
S11319D0FC01528D338D531710F02230F1F4422F55
S11319E07801EC011E8D8A8DCE014FDE1F3F79F404
S11319F089898823A1F0CE014196AAD4882389F04D
S1131A00E114F10481F081E0F70180830DC0FF242B
S1131A10F394F10EFE8E81E007C080E005C081E002
S1131A2003C081E001C081E0DF91CF911F910F914C
S1131A30FF90EF900895AF92BF92CF92DF92EF9212
S1131A40FF920F931F93CF93DF93CDB7DEB7259704
S1131A50CDBFDEBF8C015B014C835D83E12C6C0147
S1131A6081E1C80ED11C0FB6F8940F92F801F28CE4
S1131A70FF2091F0B501C80151DEFA94F801F28E0D
S1131A808085882329F0C801089662D4811126DD57
S1131A900F900FBE81E045C08C819D81892B21F47C
S1131AA00F900FBE80E03DC0E11005C0CE0101964D
S1131AB097D4EE24E3940F900FBE66D20FB6F89439
S1131AC00F92F801858D8F3F09F4158EF801868DEC
S1131AD08F3F09F4168E0F900FBEBE016C5F7F4FCF
S1131AE0CE01019688D4811113C0C801C3DD8823B7
S1131AF059F06C817D81C60102D4C80129DE0CD362
S1131B008111B1CFEBDCAFCFC80122DE05D3ABCF5F
S1131B10C8011EDE01D3C801ADDD882309F4A3CFBB
S1131B2080E02596CDBFDEBFDF91CF911F910F914D
S1131B30FF90EF90DF90CF90BF90AF900895DF9229
S1131B40EF92FF920F931F93CF93DF93CDB7DEB73E
S1131B502597CDBFDEBF8C016C837D83D12C7C01A6
S1131B6081E1E80EF11C0FB6F8940F92F801828D12
S1131B70882371F08150828F8085882329F0C801E1
S1131B800896E6D38111AADC0F900FBE81E045C010
S1131B908C819D81892B21F40F900FBE80E03DC084
S1131BA0D11005C0CE0101961BD4DD24D3940F902F
S1131BB00FBEEAD10FB6F8940F92F801858D8F3FCE
S1131BC009F4158EF801868D8F3F09F4168E0F9057
S1131BD00FBEBE016C5F7F4FCE0101960CD4811104
S1131BE013C0C80147DD882359F06C817D81C7018A
S1131BF086D3C801ADDD90D28111B5CF6FDCB3CFF0
S1131C00C801A6DD89D2AFCFC801A2DD85D2C80143
S1131C1031DD882309F4A7CF80E02596CDBFDEBF50
S1131C20DF91CF911F910F91FF90EF90DF90089576
S1131C30CF93DF93EC010FB6F8940F928D8D8F3F05
S1131C4009F41D8E8E8D8F3F09F41E8E0F900FBEEA
S1131C508A8D811103C0CE01419662D3CE0178DD15
S1131C60DF91CF910895E0917422F09175228081E3
S1131C70811107C08FEF9FEF80935D2290935E22C6
S1131C800895E0917422F09175220580F681E02D8B
S1131C908081918180935D2290935E220895C8E8AB
S1131CA0D2E288818230E8F319DCFBCF0F931F93D3
S1131CB0CF93DF93EC01009166221091672280910B
S1131CC0B5229091B622029626DBC00FD11FE09177
S1131CD0B522F091B622C283D383C017D10760F432
S1131CE06091B5227091B6228091722290917322F4
S1131CF06E5F7F4FDFDA16C06091B5227091B62215
S1131D0080917422909175226E5F7F4FD3DA809117
S1131D105D2290915E22C817D90720F4C0935D22FA
S1131D20D0935E22DF91CF911F910F9108954F922E
S1131D305F926F927F928F929F92AF92BF92CF9257
S1131D40DF92EF92FF920F931F93CF93DF934C0197
S1131D506B015A012901CA0173DC3C01892B09F486
S1131D60D6C086E290E06CDCEC01892B59F06F8AD6
S1131D70788E81E0A81AB108A60CB71CC114D1044E
S1131D8021F41FC0C30169DCC2C0D6018C91898FC4
S1131D908C918823A1F0AE01465E5F4FF601319627
S1131DA0B8E0CB0ED11CCF012191DA012D93AD0106
S1131DB0DC018C91882319F0CE16DF06A1F718A256
S1131DC001C0198E053008F004E00E8B6E01B2E0FC
S1131DD0CB0ED11CC60149DACE010C9646DAC8876F
S1131DE0D98785E090E0801B91098C879D87CA8BF9
S1131DF0DB8B84E0FE01B196DF011D928A95E9F741
S1131E001DA2A201B401C501ADDA88839983E1144E
S1131E10F10419F0F701C083D1830FB6F8940F923F
S1131E20809168228F5F809368228091B52290917F
S1131E30B622892B69F5C093B522D093B62280913E
S1131E4068228130A9F508E812E20F2EF5EBEF2E97
S1131E50F2E2FF2EF02DC801FAD9075F1F4F0E15CD
S1131E601F05C9F78FE792E2F2D986E792E2EFD92C
S1131E7089E692E2ECD98FE792E280937422909300
S1131E80752286E792E2809372229093732210C0A7
S1131E908091642281110CC0E091B522F091B622A8
S1131EA096898E89891720F0C093B522D093B622E3
S1131EB080915F228F5F80935F228E89909165224B
S1131EC0981710F48093652290E09C01220F331F31
S1131ED0220F331F220F331F820F931FB60188571F
S1131EE09D4DC7D90F900FBE80916422882359F06D
S1131EF0E091B522F091B62296898E89981728F43C
S1131F00EDDA81E005C081E003C081E001C08FEF1C
S1131F10DF91CF911F910F91FF90EF90DF90CF90C1
S1131F20BF90AF909F908F907F906F905F904F90F5
S1131F300895EF92FF920F930F2EFBE5EF2EF2E23E
S1131F40FF2EF02D00E020E030E045E550E06DE0AC
S1131F5070E28FE49EE0EBDE813091F4E5D28130D3
S1131F6079F4F8948FEF9FEF80935D2290935E2233
S1131F7081E080936422109266221092672269DACB
S1131F800F91FF90EF90089580915A228F5F809374
S1131F905A2208950FB6F8940F9280916622909178
S1131FA067220F900FBE0895DF92EF92FF920F9376
S1131FB01F93CF93DF9380915A2281119AC0E090AE
S1131FC06622F09067228FEFE81AF80AE092662200
S1131FD0F0926722E114F104B1F48091742290919B
S1131FE075222091722230917322209374223093AF
S1131FF075228093722290937322809160228F5F66
S11320008093602230DE80915D2290915E22E816FA
S1132010F90610F4D12C4FC0D12CE0917422F09128
S113202075228081811107C08FEF9FEF80935D221D
S113203090935E2240C0E0917422F0917522058055
S1132040F681E02DC681D7818A819B81E816F90645
S113205028F480935D2290935E222DC08E010E5F42
S11320601F4FC80158D98C899D89892B19F0CE013D
S11320700C9651D98E8990916522981710F480930B
S1132080652290E09C01220F331F220F331F220F81
S1132090331F820F931FB80188579D4DEAD8E091F2
S11320A0B522F091B6229E898689981708F4B5CF97
S11320B0DD24D394B2CFE091B522F091B622868983
S11320C090E0FC01EE0FFF1FEE0FFF1FEE0FFF1F4E
S11320D08E0F9F1FFC01E857FD4D8081823010F068
S11320E0DD24D39480916122882369F0DD24D39484
S11320F00AC08091622290916322019680936222A9
S113210090936322D12C8D2DDF91CF911F910F914C
S1132110FF90EF90DF900895DF92EF92FF920F937C
S11321201F93CF93DF930FB6F8940F9280915A22A6
S1132130815080935A2280915A2281115DC08091EE
S11321406822811130C05BC0D7011596ED91FC91D6
S11321501697C681D781CE010C96DDD88E010E5F0D
S11321601F4FC801D8D88E8990916522981710F412
S11321708093652290E09C01220F331F220F331FAE
S1132180220F331F820F931FB80188579D4D71D8BA
S1132190E091B522F091B6229E898689981768F05D
S11321A0D09261220AC0C0E0D0E00F2EF9E6EF2EF3
S11321B0F2E2FF2EF02DDD24D394F701808181110A
S11321C0C3CFCD2B09F04FDDC0916222D0916322A1
S11321D0209759F011E0E8DE8111109361222197D4
S11321E0D1F7109262221092632280916122882397
S11321F029F074D981E003C080E001C080E00F9031
S11322000FBEDF91CF911F910F91FF90EF90DF9060
S11322100895CF93DF93EC01892B39F0B5DE60E0AC
S1132220CE0144DD79DF811101C058D9DF91CF910E
S1132230089580915A22882321F081E080936122BD
S113224008951092612220916522822F90E0FC0172
S1132250EE0FFF1FEE0FFF1FEE0FFF1FE80FF91F1A
S1132260E857FD4D3081311111C02150822F90E08B
S1132270FC01EE0FFF1FEE0FFF1FEE0FFF1FE80F15
S1132280F91FE857FD4D3081332379F3AC01440F36
S1132290551F440F551F440F551F480F591FDA018E
S11322A0A857BD4D1196ED91FC9112970280F381D0
S11322B0E02D1196ED93FC93129745575D4DE4176D
S11322C0F50729F442815381FD0141835283FC01C6
S11322D0EE0FFF1FEE0FFF1FEE0FFF1F8E0F9F1F4E
S11322E0FC01E857FD4D0180F281E02D8681978144
S11322F08093B5229093B622209365220895CF93BC
S1132300DF93EB016091B5227091B622645F7F4F39
S11323100E945A0961E0CE01C9DCDF91CF91089592
S11323200F931F93CF938B01C42F6091B5227091AB
S1132330B622645F7F4F0E943909CC2311F00FEF5E
S11323401FEF6C2FC801B2DCCF911F910F9108953C
S11323500F931F93CF93DF93DC011596ED91FC91BE
S11323601697C681D7818E01045F1F4FC8010E9452
S11323708B0980915A2281111CC00A501109C8018D
S11323800E948B098E8990916522981710F480938E
S1132390652290E09C01220F331F220F331F220F6E
S11323A0331F820F931FB80188579D4D0E9439092E
S11323B005C0B80189E692E20E943909E091B5228C
S11323C0F091B6229E898689891720F481E0809352
S11323D0612201C080E0DF91CF911F910F91089598
S11323E020916022FC012083209166223091672293
S11323F02183328308950FB6F8940F9220916622B8
S113240030916722DC0111964D915C911297E09115
S11324106022FC91FE1741F02417350728F0FB01D8
S11324201082118281E014C0241B350BDB014D9115
S11324305C912417350740F4FB01421B530B408386
S11324405183CEDF80E004C0FB011082118281E061
S11324500F900FBE089581E08093612208958091CA
S11324606422882331F080915A22882321F080E06D
S1132470089581E0089582E00895FC0162837383E6
S1132480808791874617570790F0421B530B84852A
S1132490958548175907E0F4BF016E5F7F4F80911F
S11324A0BD229091BE220E945A0980E008954217ED
S11324B0530718F46217730768F4BF016E5F7F4F08
S11324C08091BF229091C0220E945A0980E0089511
S11324D081E0089581E008950FB6F8940F928091F9
S11324E0BB229091BC22892BE1F48AEC92E20E94F7
S11324F0270981EC92E20E9427098AEC92E28093F8
S1132500BF229093C02281EC92E28093BD229093EB
S1132510BE2240E065E08AE0A6D98093BB22909376
S1132520BC220F900FBE0895EF92FF920F93D4DF59
S11325308091BB229091BC22892B89F00F2EF9EB5C
S1132540EF2EF2E2FF2EF02D03E020E030E045E52F
S113255050E062E170E284E693E1E9DB01C080E0EF
S11325600F91FF90EF9008950F931F93CF93DF93F4
S1132570CDB7DEB72597CDBFDEBFE091BB22F0918A
S1132580BC22309751F1D90169834A835B838C83E0
S11325909D836630D4F463DF823059F420E0A801CF
S11325A0BE016F5F7F4F8091BB229091BC227CD98A
S11325B015C020E040E050E0BE016F5F7F4F809186
S11325C0BB229091BC2270D909C020E0AD01BE01AC
S11325D06F5F7F4FCF01F5D901C080E02596CDBF55
S11325E0DEBFDF91CF911F910F910895AF92BF92FB
S11325F0CF92DF92EF92FF920F931F93CF93DF93CB
S11326006C01C8DC7C018091B7229091B822E81655
S1132610F90608F047C02FC00580F681E02DA080A0
S1132620B180C681D7818E010E5F1F4FC8010E9401
S11326308B09E889F989CE0119958A8982FF1BC023
S11326408C859D858A0D9B1DA816B90660F48A8326
S11326509B83C887D987B8018091BF229091C022FB
S11326600E945A0908C000E010E020E030E0A50113
S113267060E0CE0179DFE091BF22F091C022808139
S11326808111CACF8091BD229091BE228093BF2236
S11326909093C022E093BD22F093BE2281E0F60124
S11326A0808302C0F6011082E092B722F092B82231
S11326B0C701DF91CF911F910F91FF90EF90DF90B1
S11326C0CF90BF90AF900895CF93DF9300D000D008
S11326D0CDB7DEB7CE0101965C01E82EFB2CE0916C
S11326E0BF22F091C0228081882309F4CFC00580E5
S11326F0F681E02DC080D18047DCC50177DF8C01F5
S11327008981811146C00C151D05A0F105DDE091FC
S1132710BF22F091C0220580F681E02D868097804B
S1132720C40102960E948B09D40152968C9152974F
S113273082FF15C01C966D917C911D976C0D7D1DBB
S11327409601A801C40199DE882361F000E010E03D
S113275020E030E0A60160E0C40106DF03C08E7F04
S1132760F401828BD4015096ED91FC915197C401F0
S1132770199580C040E0B601601B710B8091BB22AB
S11327809091BC2255DAC8DC811174C00E946E0A93
S113279071C0C2DC6FC0898188230CF46BC0CC800B
S11327A0DD80F60182859385892B21F0C60102968E
S11327B00E948B09CE01069619DFAC01E9810E2E29
S11327C0000CFF0BEA30F10508F054C08827E250F2
S11327D0FF4F8F4F27C3D60152968C915297816039
S11327E052968C9352972A813B811C966D917C91D1
S11327F01D97620F731FC60140DE8823D9F1D601ED
S11328005096ED91FC915197C6011995F601828974
S113281082FF30C04A815B8184859585480F591FAA
S113282000E010E020E030E060E0C6019DDE22C060
S1132830D60152968C9152978E7F52968C931AC0E1
S1132840F60182898160828B6A817B8164877587C6
S1132850640F751F9A01C60110DE0CC0D601529692
S11328608C9181FD04C0C6010E942D0B03C08E7F94
S1132870F601828B40E050E06E2D7F2D8091BB22CB
S11328809091BC22D8D8811186CF29CF7DDBC50198
S1132890ADDE8C01898181117CCFE091BD22F09164
S11328A0BE22808141E0811140E0C12CD12C63CF54
S11328B0CF93DF93FC0120E030E0C62FD0E0DE01AF
S11328C0022E02C0B595A7950A94E2F7A0FD508B9D
S11328D02F5F3F4F31962830310589F740FF0AC0FA
S11328E041FF03C0FC01658302C0FC016683FC0157
S11328F0618302C0FC016283DF91CF91089543E0BC
S113290050E061E080EE97E0D3DF43E050E062E026
S113291080EE97E0CDDF43E050E060E180E696E0B2
S1132920C7DF41E050E460E280E696E0C1DF40E0CA
S11329305BE160E280E896E0BBDF40E05BE162E0FF
S113294080EA96E0B5DF40E05BE164E080EA96E08F
S1132950AFDF43E050E062E080E696E0A9DF43E0C9
S113296050E068E080E696E0A3DF43E050E068E0F2
S113297080EA96E09DDF43E050E061E080E696E087
S113298097DF43E050E068E080E096E091DF41E0CB
S113299050E060E180E896E08BDF43E050E062E0E5
S11329A080E696E085DF43E050E068E080E696E06C
S11329B07FDF40E050E064E080E696E079DF43E0CA
S11329C050E060E180EA96E073DF40E050E061E0CF
S11329D080E096E06DDF40E050E064E080E096E067
S11329E067DF40E050E062E080E296E061DF43E0D0
S11329F050E068E080E496E05BDF40E050E064E0B3
S1132A0080E496E055DF43E050E068E080E696E03D
S1132A104FDF40E050E064E080E696E049DF43E0C9
S1132A2050E068E080E896E043DF40E050E064E096
S1132A3080E896E03DCF08958091D72280FD04C0C0
S1132A4081E080934506089581E0809346060895C9
S1132A50CF93DF93CDB7DEB7C058D109CDBFDEBF6A
S1132A600F2EFAE1EF2EF0E2FF2EF02D6894DD2414
S1132A70D7F88E010F5F1F4F6AE070E08091D92272
S1132A809091DA225CD8813039F58091D7229091E7
S1132A90D82201968093D7229093D8229F938F9324
S1132AA0FF92EF921F92DF921F930F93EDD226E0D5
S1132AB030E248E060E0C8010E94FE08BDDF20E08B
S1132AC040E050E060E070E08091D9229091DA22F9
S1132AD00E94540CCDBFDEBF82E390E09ADBCCCFE2
S1132AE0CF93DF93CDB7DEB7C058D109CDBFDEBFDA
S1132AF000EA16E00F2EFAE1CF2EF0E2DF2EF02DE1
S1132B006894BB24B7F8CE0101967C01F801808556
S1132B1081FD32C06AE070E08091D9229091DA227E
S1132B200ED8813009F05DC08091D7229091D822CF
S1132B3001968093D7229093D8229F938F93DF920C
S1132B40CF921F92BF92FF92EF929ED226E030E284
S1132B5048E060E0C7010E94FE086EDF20E040E02C
S1132B6050E060E070E08091D9229091DA220E94D6
S1132B70540CCDBFDEBF35C0F801808582FD31C065
S1132B806AE070E08091D9229091DA220E949F0D30
S1132B90813039F58091D7229091D8220197809382
S1132BA0D7229093D8229F938F93DF92CF921F9234
S1132BB0BF92FF92EF9268D226E030E248E060E0F4
S1132BC0C7010E94FE0838DF20E040E050E060E0EA
S1132BD070E08091D9229091DA220E94540CCDBFEA
S1132BE0DEBF85E090E015DB91CFCF93DF93CDB7C7
S1132BF0DEB7C058D109CDBFDEBF20E030E00F2ED4
S1132C00F0EEAF2EF7E0BF2EF02D6894882481F803
S1132C100F2EF8E2CF2EF0E2DF2EF02D68949924E7
S1132C2097F8CE0101967C0101E02115310509F0E8
S1132C3000E010E08091D3229091D42201968093F9
S1132C40D3229093D422232B19F4F501858202C058
S1132C50F50186829F938F93DF92CF921F929F926A
S1132C60FF92EF9211D226E030E248E160E0C70122
S1132C700E94FE0884E690E0CCDACDBFDEBF980166
S1132C80D3CFCF93DF93CDB7DEB7C058D109CDBF33
S1132C90DEBF21E030E00F2EF0EEAF2EF7E0BF2EC6
S1132CA0F02D0F2EF4E3CF2EF0E2DF2EF02D6894FA
S1132CB0992497F8CE0101967C0101E02115310594
S1132CC009F000E010E08091D5229091D62201967F
S1132CD08093D5229093D622232B21F421E0F50171
S1132CE0258303C021E0F50126839F938F93DF9210
S1132CF0CF921F929F92FF92EF92C6D126E030E2CC
S1132D0040E160E0C7010E94FE0882E390E081DABE
S1132D10CDBFDEBF9801D1CFEF92FF920F9381E038
S1132D2080934106ECDD87E08093A2000E94E904D1
S1132D3080E18093850626E030E240E060E080E4B4
S1132D4090E20E94FE0826E030E248E060E08CE475
S1132D5090E20E94FE08E12CF12C01E020E030E03A
S1132D6048EE53E06FE370E281E496E10E94970E2F
S1132D7002E020E030E048EE53E06FE370E285EFDC
S1132D8095E10E94970E03E020E030E048EE53E026
S1132D906FE370E280E795E10E94970E00E020E087
S1132DA030E048EE53E06FE370E288E295E10E9480
S1132DB0970E43E060E081E00E94330C8093D922B7
S1132DC09093DA2220E040E050E060E070E00E945E
S1132DD0540CAFD880E090E00F91FF90EF900895ED
S1132DE0A1E21A2EAA1BBB1BFD010DC0AA1FBB1F0B
S1132DF0EE1FFF1FA217B307E407F50720F0A21B7D
S1132E00B30BE40BF50B661F771F881F991F1A94E9
S1132E1069F760957095809590959B01AC01BD0113
S1132E20CF010895EE0FFF1F881F8BBF0790F69107
S1132E30E02D19940F931F93CF93DF938230910564
S1132E4010F482E090E0E091DD22F091DE2220E0B7
S1132E5030E0A0E0B0E0309719F140815181028167
S1132E60138148175907C8F08417950769F4109718
S1132E7031F012960C93129713961C9327C000936B
S1132E80DD221093DE2222C02115310519F04217EC
S1132E90530718F49A01BD01EF01DF01F801DBCFFC
S1132EA021153105F9F0281B390B2430310580F444
S1132EB08A819B816115710521F0FB0182839383D3
S1132EC004C08093DD229093DE22FE01329644C03A
S1132ED0FE01E20FF31F819391932250310928835D
S1132EE039833AC02091DB223091DC22232B41F438
S1132EF020910220309103202093DB223093DC22A6
S1132F0020910020309101202115310541F42DB785
S1132F103EB74091042050910520241B350BE091CD
S1132F20DB22F091DC22E217F307A0F42E1B3F0B07
S1132F302817390778F0AC014E5F5F4F2417350727
S1132F4048F04E0F5F1F4093DB225093DC228193A5
S1132F50919302C0E0E0F0E0CF01DF91CF911F91A7
S1132F600F910895CF93DF93009709F481C0FC017A
S1132F70329712821382A091DD22B091DE22109743
S1132F8081F420813181820F931F2091DB223091C3
S1132F90DC222817390751F5E093DB22F093DC2279
S1132FA067C0ED0120E030E0CE17DF0740F44A812E
S1132FB05B819E0141155105F1F0EA01F5CFC28311
S1132FC0D38340815181840F951FC817D90759F4C1
S1132FD088819981840F951F0296808391838A81C9
S1132FE09B81828393832115310529F4E093DD22AB
S1132FF0F093DE223DC0E901EA83FB8349915991B4
S1133000C40FD51FEC17FD0761F480819181840FF3
S1133010951F0296E90188839983828193818A832B
S11330209B83E0E0F0E012968D919C9113970097BA
S113303019F0FD01DC01F7CF8D919C9111979D0151
S11330402E5F3F4F820F931F2091DB223091DC22B1
S11330502817390769F4309729F41092DD22109269
S1133060DE2202C012821382A093DB22B093DC2200
S1133070DF91CF910895FB01DC0102C001900D9214
S113308041505040D8F708950F931F93CF93DF9387
S1133090CDB7DEB72E97CDBFDEBF0E891F89888DD1
S11330A0998D26E02C8309831A8397FF02C080E060
S11330B090E801978D839E83AE01445E5F4F6A8DD5
S11330C07B8DCE01019616D04D815E8157FD0AC0DD
S11330D02F813885421753070CF49A01F801E20F47
S11330E0F31F10822E96CDBFDEBFDF91CF911F91CB
S11330F00F9108952F923F924F925F926F927F9219
S11331008F929F92AF92BF92CF92DF92EF92FF92F3
S11331100F931F93CF93DF93CDB7DEB72B97CDBF1C
S1133120DEBF6C017B018A01FC0116821782838158
S113313081FFBFC1CE0101963C01F6019381F701E5
S113314093FD859193FF81917F01882309F4ADC19B
S1133150853239F493FD859193FF81917F01853206
S113316021F4B60190E0D3D1E8CF912C212C312C5D
S1133170FFE1F315D8F08B3279F038F4803279F02E
S11331808332A1F4232D20611DC08D3261F0803380
S113319069F4232D216016C0832D8260382EE32D1F
S11331A0E4603E2E2AC0F32DF8601DC037FC2DC00C
S11331B020ED280F2A3040F08E32B9F436FC75C168
S11331C0232D2064322E19C036FE06C08AE0989E54
S11331D0200D1124922E11C0EAE02E9E200D112400
S11331E0222EF32DF0623F2E08C08C3621F4832D5D
S11331F08068382E02C0883641F4F70193FD85912A
S113320093FF81917F018111B3CF982F9F7D9554B6
S1133210933028F40C5F1F4F9FE399830DC08336CE
S113322031F0833771F0833509F055C020C0F801BF
S1133230808189830E5F1F4F88248394912C5301CE
S113324012C02801F2E04F0E511CF801A080B18099
S113325036FE03C0692D70E002C06FEF7FEFC50139
S11332604BD14C018201F32DFF773F2E15C028016D
S113327022E0420E511CF801A080B18036FE03C04A
S1133280692D70E002C06FEF7FEFC5012AD14C01B8
S1133290F32DF0683F2E820133FC19C0822D90E09B
S11332A088169906A0F4B60180E290E030D12A9401
S11332B0F5CFF50137FC859137FE81915F01B601A9
S11332C090E025D121102A9421E0821A91088114DA
S11332D0910479F7E1C0843611F0893639F5F801A3
S11332E037FE07C060817181828193810C5F1F4F1B
S11332F008C060817181072E000C880B990B0E5F4A
S11333001F4FF32DFF763F2E97FF09C090958095B0
S1133310709561957F4F8F4F9F4FF0683F2E2AE045
S113332030E0A30130D1882E861844C0853731F4AB
S1133330232D2F7EB22E2AE030E025C0932D997FD5
S1133340B92E8F36C1F018F4883579F0AEC08037C5
S113335019F0883721F0A9C0E92FE061BE2EB4FE30
S11333600DC0FB2DF460BF2E09C034FE0AC0292F06
S11333702660B22E06C028E030E005C020E130E02F
S113338002C020E132E0F801B7FE07C0608171811C
S1133390828193810C5F1F4F06C06081718180E040
S11333A090E00E5F1F4FA301EED0882E8618FB2DF0
S11333B0FF773F2E36FE0DC0232D2E7FA22E8914BB
S11333C058F434FE0BC032FC09C0832D8E7EA82E27
S11333D005C0B82CA32C03C0B82C01C0B92CA4FE82
S11333E00FC0FE01E80DF11D8081803321F49A2D78
S11333F0997EA92E09C0A2FE06C0B394B39404C05A
S11334008A2D867809F0B394A3FC10C0A0FE06C0F0
S1133410B21480F4280C922C9B180DC0B21458F4EA
S1133420B60180E290E073D0B394F8CFB21418F4EC
S11334302B1802C0982C212CA4FE0FC0B60180E3E7
S113344090E065D0A2FE16C0A1FC03C088E790E01E
S113345002C088E590E0B6010CC08A2D867851F050
S1133460A1FE02C08BE201C080E2A7FC8DE2B6019E
S113347090E04DD0891430F4B60180E390E047D059
S11334809A94F8CF8A94F301E80DF11D8081B60176
S113349090E03DD08110F6CF222009F44ECEB60143
S11334A080E290E034D02A94F7CFF60186819781A8
S11334B002C08FEF9FEF2B96CDBFDEBFDF91CF9180
S11334C01F910F91FF90EF90DF90CF90BF90AF903E
S11334D09F908F907F906F905F904F903F902F9030
S11334E00895FC010590615070400110D8F7809553
S11334F090958E0F9F1F0895FC01615070400190BC
S11335000110D8F7809590958E0F9F1F08950F9303
S11335101F93CF93DF93FB01238121FD03C08FEF22
S11335209FEF2CC022FF16C046815781248135812C
S11335304217530744F4A081B1819D012F5F3F4F8F
S1133540208331838C93268137812F5F3F4F2683DD
S1133550378314C08B01EC01FB010084F185E02D5D
S11335601995892BE1F6D80116968D919C911797A0
S1133570019616968D939C931797CE01DF91CF9168
S11335801F910F910895FA01AA27283051F1203193
S113359081F1E8946F936E7F6E5F7F4F8F4F9F4FE3
S11335A0AF4FB1E03ED0B4E03CD0670F781F891F25
S11335B09A1FA11D680F791F8A1F911DA11D6A0FF3
S11335C0711D811D911DA11D20D009F468943F91A6
S11335D02AE0269F11243019305D3193DEF6CF01A5
S11335E00895462F4770405D4193B3E00FD0C9F76B
S11335F0F6CF462F4F70405D4A3318F0495D31FDD8
S11336004052419302D0A9F7EACFB4E0A69597952A
S1133610879577956795BA95C9F700976105710500
S113362008959B01AC010A2E06945795479537954A
S11336302795BA95C9F7620F731F841F951FA01DA4
S10936400895F894FFCF89
S11336460000DF2220000010020607207D49444CBA
S11336564500546D722053766300436F756E74652E
S113366672203A20256420004C45442031203A201B
S1133676256420004C45442030203A20256420004F
S113368652544F532053746576656E00436F756EBE
S10B3696746572203A20300033
S9030000FC
